:020000040800F2
:1000000058300020B5030008D9030008DB030008BE
:10001000DD030008DF030008E10300080000000022
:100020000000000000000000000000009D0100082A
:10003000E303000800000000E10100081F5700086A
:10004000CF030008CF030008CF030008CF03000848
:10005000CF030008CF030008CF030008CF03000838
:10006000CF030008AB050008CF0300089504000883
:1000700057040008E1040008CF0300080904000841
:10008000CF03000811040008CF030008CF030008C5
:10009000CF030008CF030008CF030008CF030008F8
:1000A000CF0300080505000825050008CF03000858
:1000B000270500084705000867050008CF0300086A
:1000C000CF030008CF030008CF030008A7050008EE
:1000D000CF030008E9030008CF030008CF0300089E
:1000E000CF030008CF030008CF030008CF030008A8
:1000F000CF030008CF030008CF030008B7040008AF
:10010000CF030008CF03000887050008A9050008F1
:10011000CF030008CF030008EB040008F304000835
:10012000CF030008CF03000833040008CF03000802
:10013000CF030008CF030008CF030008CF03000857
:10014000CF030008CF030008CF030008CF03000847
:100150004D040008CF030008CF030008CF030008B8
:10016000CF030008CF030008CF030008CF03000827
:10017000CF030008CF030008CF030008CF03000817
:10018000CF030008CF030008DFF80CD006F052FBC5
:10019000004800470732000858300020234B1968F8
:1001A0000868B0E8F04F80F309884FF0000080F352
:1001B000118870470000000003480068006880F361
:1001C000088862B600DF00BF08ED00E0DFF80C0031
:1001D000016841F470010160704700BF88ED00E0E4
:1001E000EFF30980114B1A681EF0100F08BF20EDC5
:1001F000108A20E9F04F106008B54FF0140080F32A
:10020000118805F062FD4FF0000080F31188BDE811
:10021000084019680868B0E8F04F1EF0100F08BFDA
:10022000B0EC108A80F30988704700BFD401002029
:10023000EFF311804FF0140181F31188704780F3C0
:10024000118870470CB500205149019000900A6850
:1002500042F480320A604FF4A0630A6802F400326C
:100260000092019A521C0192009A12B9019A9A4284
:10027000F3D10A68920334D50120009044484030FD
:10028000026842F0805202604248026842F48042B2
:1002900002603F48083002680260026842F400428F
:1002A0000260026842F4A0520260031F3A4A1A60D8
:1002B0000A6842F080720A600A689201FCD5374AE7
:1002C00040F205611160016821F0030101600168DD
:1002D00041F0020101600168C1F381010229FAD1F4
:1002E0000CBD00900CBD2A4810B5016841F0010119
:1002F0000160274A0021083211600268284B1A4029
:100300000260031D274A1A60026822F480220260FC
:100310001F480C300160FFF795FF23494FF0006044
:10032000086010BD70B51A4C083420681F4A10F0E0
:100330000C011F4804D05510042903D0082903D00C
:1003400002601BE0056019E01149091D0B68C3F349
:1003500080560B6803F03F0316B1B5FBF3F201E0E2
:10036000B2FBF3F20B680968C3F388135A43C1F375
:100370000141491C4900B2FBF1F1016021680C4ABE
:10038000C1F30311121D515C0268CA40026070BDC6
:10039000003802400070004008544007003C024012
:1003A000FFFFF6FE1030002408ED00E00024F4000A
:1003B000000000200648804706480047FEE7FEE7A9
:1003C000FEE7FEE7FEE7FEE7FEE7FEE7FEE7FEE705
:1003D000E7020008890100087047FEE7FEE7FEE734
:1003E000FEE770477047704710B5704C40F22551DA
:1003F000204604F01AFC002805D02046BDE8104035
:10040000202104F00FBC10BD69496A4803F093BD78
:1004100070B5684D684C30352146284603F068FDBC
:10042000002805D021462846BDE8704003F083BD72
:1004300070BD10B56149624803F07DFD61484178A7
:10044000007841EA00206049088010BD5C485F499F
:10045000483003F070BD70B5564D5D4C483D2146A7
:10046000284603F045FD002813D02146284603F016
:1004700062FD584801F0C8FC00280AD1564C002102
:10048000204604F011FB2046BDE87040012104F035
:100490000BBB70BD70B5474D504C603D21462846A2
:1004A00003F026FD002805D021462846BDE870400F
:1004B00003F041BD70BD70B53E4C494D48342946EE
:1004C000204603F015FD002809D00021204603F046
:1004D00084FC29462046BDE8704003F02CBD70BD69
:1004E00034483349303803F026BD01213D4804F03B
:1004F0007AB910B501213C4804F075F92B497A20EE
:10050000888010BD10B5394C0121204604F06BF9EC
:100510002088C1063648016801D5491E00E0491C03
:10052000016010BD704710B501218C07204604F012
:100530005AF92088C1062F48016801D5491E00E0FC
:10054000491C016010BD10B52B4C0121204604F060
:100550004AF92088C1062948016801D5491E00E0F2
:10056000491C016010BD10B5254C0121204604F046
:100570003AF92088C1062348016801D5491E00E0E8
:10058000491C016010BD10B51F4C0121204604F02C
:100590002AF92088C1061D48016801D5491E00E0DE
:1005A000491C016010BD7047704770470010014042
:1005B00020800020706002400080202000802010F9
:1005C00040640240D802002018000020008800206B
:1005D00000880010F6020020004800402080001033
:1005E000008000280010004000140040000001407E
:1005F0001C000020200000200004004024000020F7
:100600000008004094010020000C00402800002059
:1006100001B581B0019800EBC000400000900028B7
:1006200001D0401EFAE70CBD01B581B044F2506123
:10063000019848430090002801D0401EFAE70CBD05
:100640000121FE4803F0C9BB002800DA4042704790
:10065000401A511A90FBF1F010B5029CE11A00FB10
:10066000013010BD30EE600A31EE601AC0EE010AB2
:1006700032EE611AB0EE610A00EE810A704710B5E1
:1006800010EE100A05F0DCFF9FEDED1B53EC112B73
:1006900005F0E4FE05F0E7FF00EE100A10BD10B50E
:1006A00010EE100A05F0CCFF9FEDE71B53EC112B69
:1006B00005F0D4FE05F0D7FF00EE100A10BD90FB48
:1006C000F1F010B5400005F0AAFF9FEDE11B53ECDF
:1006D000112B05F0C3FE05F0C6FF00EE100A10BD99
:1006E00010B5FFF7ECFFBDE81040C8E703468842AD
:1006F00000DA0846934200DD1046704770B50546A3
:10070000002405F0FDFDD44902E02A5D0A55641C71
:100710008442FADBBDE87040C8480121183003F07C
:100720005CBB70B5CD4D06460024315D00290BD071
:10073000284604F0DFF98021284604F06CFA0028EE
:10074000F9D0641CE4B2F0E770BD70B5C34E054645
:100750000024002D0DD02946304604F0CBF980212D
:10076000304604F058FA0028F9D0641CE4B2032C97
:10077000EFD370BD73B50C460020FFF7E6FFB8A0BD
:10078000FFF7CFFFB4482246B6A1823806F0CCF876
:10079000B1488238FFF7C5FFB3A0FFF7C2FFB4A08E
:1007A000FFF7BFFFAC48AFA18238009A06F0BCF853
:1007B000A94E0024A94D823E2846315D04F09AF9E5
:1007C0004021284604F027FA0028F9D0641C142C94
:1007D000F2DBA7A0FFF7A5FFFF20FFF7B6FFFF2082
:1007E000FFF7B3FFBDE87C40FF20AEE770B50546DC
:1007F0000C469BA0FFF795FF9748224699A18238A7
:1008000006F092F894488238FFF78BFF99A0FFF723
:1008100088FF2846FFF785FF95A0FFF782FFBDE818
:100820007040FF2091E777B592A185B00646D1E9E7
:100830000001CDE900018EA000220068039088A08D
:10084000854D0068283DA5F128030290824C114691
:10085000A3F13200A95499548154A154521CD2B22C
:100860001E2AF7D30A210170FF2444708470C470DB
:1008700079487CA15038079A06F056F8764902A8C4
:10088000503905F025FD744802A9823805F020FD95
:1008900071486946823805F01BFD6F483146823841
:1008A00005F016FD6C486FA15038069A06F03CF82A
:1008B00069495039A1F1320005F00AFD664803A9E3
:1008C000823805F005FD64492C706C702839AC70D5
:1008D000A1F15A0005F0FCFC5F488238FFF70EFFDB
:1008E00008B070BD2DE9F741884662A185B0064683
:1008F000D1E90001CDE900015DA00022006803906C
:1009000057A0554D0068283DA5F1280102901446D6
:10091000A1F13200AC548C548454521CD2B20A2A35
:10092000F8D30A210170FF2747708770C7704A48C3
:100930004CA15038079A05F0F7FF474902A85039F3
:1009400005F0C6FC444802A9823805F0C1FC4248C3
:100950006946823805F0BCFC3F483146823805F0D4
:10096000B7FC3D484146823805F0B2FC3A4803A93D
:10097000823805F0ADFC2F706F703749AF70EC70A6
:1009800028392C71A1F15A0005F0A2FC32488238B6
:10099000FFF7B4FE08B0BDE8F08170B50020FFF7A6
:1009A000D4FE2FA0FFF7BDFE2B480D222DA18238CB
:1009B00005F0BAFF28488238FFF7B3FE2DA0FFF7F5
:1009C000B0FE2E4C2021204602F06EFD0246224849
:1009D00024A1823805F0A8FF1F488238FFF7A1FE46
:1009E0001021204602F060FD02461B481DA18238FE
:1009F00005F09AFF18488238FFF793FE204D8021BA
:100A0000284602F051FD0246134816A1823805F02F
:100A10008BFF11488238FFF784FE4021284602F000
:100A200043FD02460C480FA1823805F07DFF0A48BD
:100A30008238FFF776FE4FF4004123E0A0600240C9
:100A4000E5BF631ADCA54C40849E52A246DF913F6D
:100A5000EA2E4454FB210940960200200050004039
:100A600074000000256400002E7478743D000000BE
:100A7000220000002E7478743D220000000802401D
:100A800000000240204602F00FFD0246AFF22C01AA
:100A9000F64805F049FFF548FFF743FE4FF4804163
:100AA000204602F001FD0246AFF24801EF4805F092
:100AB0003BFFEE48FFF735FE4FF40051204602F0B1
:100AC000F3FC0246AFF26401E84805F02DFFE74869
:100AD000FFF727FE4021E64802F0E6FC0246AFF2AF
:100AE0007C01E24805F020FFE048FFF71AFEAFF274
:100AF0008000FFF716FEFF20FFF727FEFF20FFF71D
:100B000024FEBDE87040FF201FE6FEB5D9A10646D1
:100B1000D1E90001CDE90001D8A000210068D34D42
:100B200002905A35D1480C46A5F128026C54545411
:100B30004454491CC9B23229F8D30A21FF27017055
:100B400047708770C7700022AFF2E801C7483230A3
:100B500005F0EAFEC54902A8323105F0B9FB02A949
:100B6000C24805F0B5FB6946C04805F0B1FB324606
:100B7000AFF21011BD48323005F0D6FEBB49BB487C
:100B8000323105F0A5FB2F706F70AF70B749EC7074
:100B90002C715A31B54805F09BFBB448FFF7AEFD08
:100BA000FEBD10B5B64803F0BBFAB6498968BDE88A
:100BB000104040EA0140642190FBF1F044E510B59B
:100BC0004FF0804003F0ACFAAE49C968BDE8104070
:100BD00040EA0140642190FBF1F035E510B5FFF7E4
:100BE000E0FF0446FFF7EBFF002C00DA6442002828
:100BF00000DA4042204410BD2DE9FC4101211F20B4
:100C000002F0BAFD01248DF8044000268DF806603C
:100C10004FF6FF758DF80740032700958DF8057096
:100C20006946994802F0DAFB8DF804408DF80660B9
:100C30008DF8074000958DF805706946934802F0DD
:100C4000CDFB8DF804408DF806608DF807400095C7
:100C50008DF8057069468E4802F0C0FBBDE8FC8146
:100C60007CB501217E2002F087FD0024C0208DF894
:100C70000440012500908DF8075002268DF805608C
:100C80006946844802F0AAFB06208DF804400090D3
:100C90008DF807508DF8056069467B4802F09EFB91
:100CA00004208DF8044000908DF807508DF8056001
:100CB0006946764802F092FB7CBD1FB54FF4E060B8
:100CC00002F0D4FA36208DF80C0000248DF80D4087
:100CD0008DF80E4001208DF80F0003A802F0CBFA2A
:100CE0000121102002F066FD3220ADF80000ADF8C1
:100CF0000840ADF8024040F2E730674C0190694689
:100D0000204603F0C7F90121204603F06CFD0122C3
:100D10001146204603F047FD0021204603F0FCF970
:100D20000121204603F02EFA1FBD1FB54FF4E060ED
:100D300002F09CFA37208DF80C0000248DF80D404D
:100D40008DF80E4001208DF80F0003A802F093FAF1
:100D50000121202002F02EFD4FF4FA70ADF80000C2
:100D6000ADF80840ADF8024040F2E7304B4C01903E
:100D70006946204603F08EF90121204603F033FD39
:100D800001221146204603F00EFD0021204603F00B
:100D9000C3F90121204603F0F5F91FBD70B58AB0F3
:100DA0000121022002F010FD01210C2002F0E4FCE0
:100DB000364E03220621304602F099FB032207211A
:100DC000304602F094FB03220821304602F08FFBEC
:100DD00003220921304602F08AFB4FF4707005901F
:100DE00002208DF8180003208DF8190000248DF8DA
:100DF0001A4001258DF81B5005A9304602F0EEFA85
:100E0000A420ADF81C0040F6B83008902802244E0B
:100E1000ADF82400ADF81E4007A9304603F03AF9BA
:100E20006020ADF80000ADF802500294ADF80C401F
:100E30000121304603F0A6F90021304603F06CF999
:100E40006946304603F0A8F96946304603F0D0F908
:100E50006946304603F008FA6946304603F03EFA28
:100E60000121304603F080FC0AB070BD140200205E
:100E7000001002402E76616C3D0000006A00000008
:100E8000000001401400002000040240000802405D
:100E9000000C02400000024000100040001400401E
:100EA0000004014070B58AB00121082002F082FCE4
:100EB0000121084602F060FCFF4E0222002130466C
:100EC00002F015FB02220121304602F010FB022243
:100ED0001146304602F00BFB02220321304602F09D
:100EE00006FB0F20059002208DF8180003208DF8D6
:100EF000190000248DF81A4001258DF81B5005A912
:100F0000304602F06BFABA20ADF81C0042F21070C5
:100F1000EA4E0890ADF82440ADF81E4007A93046CF
:100F200003F0B8F86020ADF80000ADF8025002946C
:100F3000ADF80C400121304603F024F90021304681
:100F400003F0EAF86946304603F026F96946304670
:100F500003F04EF96946304603F086F9694630469B
:100F600003F0BCF90121304603F0FEFB7CE770B5CD
:100F70008AB00121042002F01DFC01210D2002F0A5
:100F8000FBFBCF4E02220C21304602F0B0FA0222C7
:100F90000D21304602F0ABFA02220E21304602F05B
:100FA000A6FA02220F21304602F0A1FA4FF4704057
:100FB000059002208DF8180003208DF819000024F8
:100FC0008DF81A4001258DF81B5005A9304602F016
:100FD00005FAA420ADF81C0040F6B83008902802AD
:100FE000B84EADF82400ADF81E4007A9304603F016
:100FF00051F86020ADF80000ADF802500294ADF851
:101000000C400121304603F0BDF80021304603F0CA
:1010100083F86946304603F0BFF86946304603F06E
:10102000E7F86946304603F01FF96946304603F099
:1010300055F919E770B5012188B0080402F0C4FB26
:101040000121084602F098FB9B4E032211463046D0
:1010500002F04DFA03220221304602F048FA0C2039
:10106000009002208DF8040003208DF80500002474
:101070008DF8064001258DF807506946304602F08C
:10108000ADF94FF6FF70904EADF808400390ADF803
:101090001040ADF80A4002A9304602F0FBFF0420E0
:1010A000ADF81400C820ADF81C00ADF81640ADF83E
:1010B000185005A9304603F0A7FA844C00231A46BD
:1010C0000321204603F009FC0121204603F08BFB9D
:1010D00001221146204603F066FB0121304603F051
:1010E00051F80021204603F017F808B070BD2DE933
:1010F000F04701218AB0084602F05CFB0121022082
:1011000002F058FB0121032002F036FBDFF8A89122
:1011100001220F21484602F0EAF9DFF8B4810122EA
:101120000321404602F0E3F902220421404602F086
:10113000DEF902220521404602F0D9F902268DF897
:101140000460032738208DF80570002400908DF886
:10115000064001258DF807506946404602F03EF9E9
:101160008DF80460E8038DF8057000908DF8064056
:101170008DF807506946484602F030F94FF6FF7087
:10118000ADF80C4004904FF08049ADF81440ADF834
:101190000E4003A9484602F07DFFDFF838A103A9FD
:1011A000504602F077FF4FF004081420ADF8188085
:1011B000ADF82000ADF81A60ADF81C5006A94846FD
:1011C00003F022FA06A9504603F01EFA02231A463B
:1011D0000321484603F081FB02231A4603215046AF
:1011E00003F07BFB0121484603F0FDFA0121504644
:1011F00003F0F9FA01221146484603F0D4FA01221D
:101200001146504603F0CFFA0121484602F0BAFFDA
:101210000121504602F0B6FF0021484602F07CFF53
:101220000021504602F078FF780202F01FF81D20DE
:101230008DF808008DF809708DF80A408DF80B5074
:1012400002A802F018F81C208DF808008DF809801B
:101250008DF80A408DF80B5002A802F00CF80AB085
:10126000BDE8F08770B501218AB0084602F0ACFAFB
:101270000121102002F080FA4FF42060009002203B
:101280008DF8040003208DF805000024124E8DF81F
:10129000064001258DF807506946304602F09EF859
:1012A00001220921304602F022F901220B213046A9
:1012B00002F01DF912E0000000000240000C0040A6
:1012C000000C0240000800400000014000400140C6
:1012D000000402400004004000100240ADF8084045
:1012E0004FF6FF700390ADF81040ADF80A4002A928
:1012F000FE4E304602F0CEFE0420ADF814000A2067
:10130000ADF81C00ADF81640ADF8185005A93046F0
:1013100003F07AF900231A460321304603F0DDFA80
:101320000121304603F05FFA01221146304603F0F6
:101330003AFA0121304603F056FA012211463046AE
:1013400003F031FA0121304602F01CFF0021304643
:1013500002F0E2FE4FF4C06001F088FF19208DF822
:1013600020008DF821508DF822408DF8235008A8D8
:1013700001F081FF78E52DE9F0418AB001210420D8
:1013800002F018FA0121082002F0F6F94FF440505B
:10139000022600908DF8046003208DF805000024DB
:1013A000D34F8DF8064001258DF807506946384621
:1013B00002F014F84FF6FF70DFF83883ADF80840FC
:1013C0000390ADF81040ADF80A4002A9404602F083
:1013D00061FE02220C21384602F089F802220D211A
:1013E000384602F084F80427C820ADF81470ADF830
:1013F0001C00ADF81660ADF8185005A9404603F082
:1014000003F902231A460321404603F066FA01213C
:10141000404603F0E8F901221146404603F0C3F9C3
:101420000121404602F0AEFE42F21071404602F049
:1014300073FEB04814300480A8F800504FF4C06028
:1014400001F014FF1E208DF820008DF821708DF81A
:1014500022408DF8235008A801F00DFF0AB0BDE826
:10146000F0812DE9F0418AB00121082002F0A2F9B3
:101470000121084602F080F9032002268DF804605D
:101480008DF8050000249C4F00908DF80640012542
:101490008DF807506946384601F0A0FF4FF6FF70FF
:1014A000DFF85882ADF808400390ADF81040ADF871
:1014B0000A4002A9404602F0EDFD02220021384612
:1014C00002F015F802220121384602F010F8042734
:1014D000C820ADF81470ADF81C00ADF81660ADF87A
:1014E000185005A9404603F08FF802231A4603213D
:1014F000404603F0F2F90121404603F074F901225D
:101500001146404603F04FF90121404602F03AFEF1
:101510000021404602F000FE784814300480A8F80C
:1015200000504FF4C06001F0A1FE32208DF8200081
:101530008DF821708DF822408DF8235008A801F015
:101540009AFE8BE72DE9F0419CB001216C4802F036
:1015500013F901210D02284602F036F969480024EA
:10156000CDE90040684802A94FF0080881E8110160
:10157000A800CDE90540400007908000CDE90805AE
:101580000AA90001012581E83100604E0D946946E9
:1015900030460E9402F0E8FB0121304602F01DFCBB
:1015A00003273C268DF8587015968DF85B4015A9D9
:1015B000514801F013FF8DF8587015968DF85B4077
:1015C00015A9534801F00AFF3804CDE91740B001CE
:1015D000CDE9194017A802F0CCF911941294139494
:1015E0002806484C0F908DF840504C3C8DF84150E7
:1015F0008DF850800FA9204602F090F904230122B3
:101600000221204602F0FFF9042302220321204692
:1016100002F0F9F9042303221946204602F0F3F9F7
:1016200004231A460521204602F0EDF90423052281
:101630000C21204602F0E7F9042306220D21204662
:1016400002F0E1F9042307220E21204602F0DBF923
:10165000042308220F21204602F0D5F9012120465B
:1016600002F04EFA0121204602F040FA0121204604
:1016700002F096F9204602F000FA1CB0EFE608B539
:101680004FF4E06001F0F2FD25208DF8000000200D
:101690008DF801008DF8020001208DF803006846E6
:1016A00001F0E9FD08BD70B5054696B00121102096
:1016B00002F08AF80121084602F05EF8012188054F
:1016C00002F05AF84FF4C060139002208DF85000D9
:1016D00000248DF852408DF85340074E8DF851008C
:1016E00013A9304601F07AFE072213E00000014002
:1016F000000C02400008004000000240000C0040C6
:10170000050040004C200140C80200201064024047
:10171000000802400921304601F0E9FE07220A21B3
:10172000304601F0E4FEADF84040ADF844400C20F6
:101730000F95ADF84240ADF84840ADF846000FA90E
:10174000FE4D284603F03FF90121284603F0ACF98D
:101750004FF4A06001F08AFD3A208DF854008DF816
:1017600055408DF8564001208DF8570015A801F01E
:1017700082FDF34E304602F06FFA4FF000600090A9
:10178000F048CDE902040A200490281D01900015BC
:10179000CDE905408010CDE9084040020A900420C0
:1017A0000B9007940320CDE90C04694630460E9453
:1017B00002F0DAFA01224021284603F00CFA012255
:1017C0001021304602F07EFB0121304602F005FB7D
:1017D00016B070BDF0B50646012197B0480501F07E
:1017E000CBFF01214D04284601F0E4FF0121082030
:1017F00001F0C2FF6020139002208DF850000024F9
:101800008DF852408DF85340CF4F8DF8510013A9F9
:10181000384601F0E3FD07220521384601F067FE56
:1018200007220621384601F062FE0F96ADF84440CB
:101830000C20C64EADF84040ADF84600ADF8424031
:10184000ADF848400FA9304603F0BDF801213046FD
:1018500003F02AF94FF4A06001F008FD11208DF883
:1018600054008DF855408DF8564001208DF85700F2
:1018700015A801F000FDB64F384602F0EDF9A802B8
:10188000009040200390B34802903C200490301D0B
:1018900001900015CDE905408010CDE908400420F5
:1018A000CDE90A5007940320CDE90C046946384677
:1018B0000E9402F059FA01228021304603F08BF990
:1018C00001228021304603F086F90122102138469A
:1018D00002F0F8FA0121384602F07FFA17B0F0BDA5
:1018E00070B50546012196B0880401F063FF01211F
:1018F000082001F041FF0121480501F03DFF4FF4B0
:101900004070139002208DF8500000248DF8524052
:101910008DF853408C4E8DF8510013A9304601F0DC
:101920005DFD07220821304601F0E1FD0722092173
:10193000304601F0DCFD0F95874EADF84040ADF824
:1019400044400C25ADF84240ADF84840ADF8465053
:101950000FA9304603F037F80121304603F0A4F810
:101960004FF4A06001F082FC8DF854508DF8554082
:101970008DF8564001208DF8570015A801F07BFC2A
:10198000734D783D284602F067F94FF000600090F3
:101990006C4869461E30CDE9020408200490301DD1
:1019A00001900015CDE905408010CDE908404002C6
:1019B0000A9004200B9007940320CDE90C042846DC
:1019C0000E9402F0D1F901224021304603F003F9D0
:1019D00001224021304603F0FEF801221021284662
:1019E00002F070FA0121284602F0F7F9F0E6F0B5AE
:1019F0000646012197B0C80401F0DCFE012108462B
:101A000001F0BAFE0121480501F0B6FE02208DF872
:101A1000500000248DF852408DF853404F4F03255D
:101A20008DF85100139513A9384601F0D7FC082210
:101A30000021384601F05BFD08220121384601F003
:101A400056FD0F96ADF844400C20454EADF8404091
:101A5000ADF84600ADF84240ADF848400FA9304619
:101A600002F0B1FF0121304603F01EF84FF4A060F0
:101A700001F0FCFB0D208DF854008DF855408DF8D9
:101A8000564001208DF8570015A801F0F4FB304FA7
:101A9000603F384602F0E0F8780500902948694632
:101AA0000F30CDE9020408200490301D019000158C
:101AB000CDE905408010CDE90840400207940A9026
:101AC0000420CDE90C540B9038460E9402F04CF9EA
:101AD00001224021304603F07EF8012240213046A9
:101AE00003F079F801221021384602F0EBF90121C8
:101AF000384602F072F9F1E62DE9F0418046012105
:101B000096B0480501F038FE0121080501F052FEAB
:101B100001210C2001F030FE02258DF840500024F8
:101B20008DF84240084F04268DF843400F968DF8FB
:101B300041500FA9384601F051FC13E0001001405C
:101B400040640240D8020020000C024000440040E3
:101B5000A060024048010020004800400000024010
:101B6000004C00408DF840508DF842408DF84340C5
:101B7000E8028DF84150FB4D0F900FA9284601F067
:101B80002DFC08220221384601F0B1FC08220C216C
:101B9000284601F0ACFC4FF4A06001F067FB2F2059
:101BA0008DF8540005208DF855008DF85600012061
:101BB0008DF8570015A801F05EFBADF84C400C20E5
:101BC000E94DADF84840ADF84E00CDF84480ADF891
:101BD0004A40ADF8504011A9284602F0F4FE012118
:101BE000284602F061FFE14F384602F035F87006F2
:101BF000009040200390DE48029031200490281D80
:101C000001900015CDE905408010CDE90840400263
:101C1000CDE90A0607940320CDE90C04694638464D
:101C20000E9402F0A1F801228021284602F0D3FF91
:101C300001221021384602F045F90121384602F010
:101C4000CCF816B00BE410B5012810D0032819D039
:101C5000042822D0052809D1C34C204602F04AFFAF
:101C60004021204602F0D7FF0028F9D010BDC14C1A
:101C7000204602F03FFF4021204602F0CCFF002822
:101C8000F9D010BDBC4C204602F034FF4021204664
:101C900002F0C1FF0028F9D010BDB84C204602F078
:101CA00029FF4021204602F0B6FF0028F9D010BDE0
:101CB00070B5B34D00206870044661210120FFF724
:101CC000C2FF3220FEF7B0FC641C022CF5D30120C9
:101CD00068707A20287070BD70B5A94D0020E8703A
:101CE000044661210320FFF7AEFF3220FEF79CFC83
:101CF000641C022CF5D30120E8707A20A87070BD16
:101D00002DE9F04700259F4E074601244FF4005966
:101D10004FF480484FF4805A00224146304601F08B
:101D2000DBFB1020FEF774FC274201D0012200E00B
:101D300000224946304601F0CFFB012241463046A1
:101D400001F0CAFB1020FEF763FC5146304601F05B
:101D5000ABFB00B12543600010F0FF04DCD1284646
:101D6000BDE8F08770B5874E4FF400450022294644
:101D7000304601F0B1FB1020FEF74AFC0120FFF7CE
:101D8000BFFF4220FFF7BCFFFF20FFF7B9FFFF2096
:101D9000FFF7B6FF7C4C2070FF20FFF7B1FF6070AB
:101DA000FF20FFF7ADFFA070FF20FFF7A9FFE07055
:101DB000FF20FFF7A5FF2071FF20FFF7A1FF607153
:101DC00029463046BDE87040012201F085BB70B560
:101DD0006C4E4FF4004500222946304601F07CFB52
:101DE0001020FEF715FC0120FFF78AFF4220FFF7C5
:101DF00087FF044601222946304601F06DFB102082
:101E0000FEF706FC204670BD5D4A00219161C27953
:101E10005D490D2A09D0FF20087048708870C8708D
:101E20000871487188710020704702780A70427802
:101E30004A7082788A70C278CA7002790A714279CF
:101E40004A7180798871012070474F484C49027867
:101E5000FF2A05D14278FF2A02D18278FF2A09D0D1
:101E60008A69531C8B61C82A03DDFF210170417010
:101E700081707047002088617047434880797047BF
:101E800041480078400601D4012070470020704787
:101E90003D480078800701D401207047002070473A
:101EA00070B5374B0125002693F84C4003F59A7323
:101EB000002803D004DDD8709E7005E0DC7003E0DC
:101EC000C0F10000D8709D70002903D004DDD971E5
:101ED0009D7105E0DC7103E0C1F10000D8719E71D5
:101EE000002A03D004DDDA729D7270BDDC7270BD11
:101EF000C2F10000D8729E7270BD23493C39C8708F
:101F0000C871C87270471E490120886470471E4816
:101F10003C38C178032907D2C179032904D2C07A99
:101F2000032801D201207047002070471448406FF9
:101F3000A0F5EA41303901D00120704700207047F8
:101F4000B6E60F48B0F90400404270470C48B5EEC1
:101F5000C00AD0ED080AF1EE10FA17D230EE600A8E
:101F600016E000000008024000500040B860024047
:101F7000960200200010014000480040004C004044
:101F800014000020000C02408401002030EE200AE2
:101F9000BDEEC00A10EE100A704710B5041E2DEDFC
:101FA000048BF6489FEDF68B006E10D014DA04F027
:101FB00036FB41EC190B204604F031FB53EC182B97
:101FC00004F04CFA53EC182B04F042FA13E09FEDA6
:101FD000EE0ABDEC048B10BD04F021FB41EC190BA3
:101FE000204604F01CFB53EC182B04F037FA53EC9A
:101FF000182B04F08CF953EC192B04F0A1FA04F01F
:1020000032FB00EE100AE4E7B5EEC00AF1EE10FA7A
:1020100001DAB1EE400A7047002800DA404270470A
:10202000D64991ED100AD1ED111AF1EE400A80EE79
:10203000A11A00EE900AF8EEE00A01EE200ABDEEC9
:10204000C00A10EE100A7047F0EE401A9FEDCF0A5A
:10205000F5EEC01AF1EE10FA01D2F1EE611AF5EECA
:10206000C00AF1EE10FA01D2F1EE600AB5EEC01A24
:10207000F1EE10FA01D2B1EE411AF4EEC01AF1EE0F
:1020800010FA01DDB0EE610AF4EEC00AF1EE10FACA
:1020900001DDB0EE600AB4EEC01AF1EE10FA01DD17
:1020A000B0EE410A7047B548006E7047B3488030C3
:1020B000C068704770B5B14D2DED048BB0EE408A0D
:1020C00005F18004686FA0F5EA41303975D02268C7
:1020D0006169D4ED010A891A401A00EE100A95EDE3
:1020E0000B1AA068B8EEC00A00EEC10AD5ED0A0AC4
:1020F000C0EE208A04F0A4FA95ED150A41EC190B04
:1021000020EE280A10EE100A04F09AFA41EC100BA7
:1021100004F036FC51EC100B81F0004153EC192B0C
:1021200004F096F904F09FFA2062A06804F088FA9F
:1021300095ED0C0AD5ED150A41EC190B38EE800A25
:1021400020EE200A10EE100A04F07AFA41EC100B8F
:1021500004F016FC53EC192B51EC100B04F078F939
:1021600004F081FA606295ED0D0AD5ED150A38EE9E
:10217000800A20EE200A10EE100A04F061FA41EC09
:10218000100B04F0FDFB51EC100B04F06CFA00EEA8
:10219000100AB1EE400A84ED0A0A00BFB5EEC08A0B
:1021A000F1EE10FA38D0E86D80B1012814D0022881
:1021B00019D0032830D123E0FFE79FED730A84EDA7
:1021C0000A0A84ED090A84ED080AE7E794ED080A93
:1021D00030EE480A84ED080A94ED090A30EE480A08
:1021E00084ED090A05E094ED080A30EE480A84ED12
:1021F000080A94ED0A0A30EE480A84ED0A0A0BE058
:1022000094ED080A30EE480A84ED080A94ED090AB4
:1022100030EE480A84ED090A203494EC030AFFF7F3
:1022200013FFD5ED070AF8EEE00A80EE801ABDEE46
:10223000C10A10EE100AA866296E814200DD2866E8
:102240000120A865BDEC048B70BD4C49002200281C
:102250004A66C86611D19FED4C0A01F180000A66FA
:1022600080ED020A47F230534B678B6780ED010A1D
:10227000CA65CA67C2608A641CE770473F483F4925
:10228000803090ED010AB5EEC00AF1EE10FA04D1EB
:10229000CA6D12B9CA6F002A09D000229FED3A0A0E
:1022A00080ED010ACA65CA674169016002E77047AB
:1022B0003248C0ED100A80ED110A70472F4A30B441
:1022C000546F02F18003844209D1546E8C4206D1CE
:1022D000D3ED020AF4EE400AF1EE10FA0FD0516687
:1022E000116E09B9052111665969196083ED020A59
:1022F00050670020106793ED010A30BCDAE630BC6D
:1023000070471E4A30B4D46F02F18003844209D171
:10231000D3ED010AF4EE400AF1EE10FA02D1D46DC9
:102320008C42ECD0556F47F23054A54219D132257A
:10233000556605251566A04213DAB5EEC00A0124DC
:10234000F1EE10FADC6002DD5C69844207DCB5EE78
:10235000C00AF1EE10FA04D25C69844201DAB1EEEF
:10236000400AD165D06783ED010A0020106730BCB8
:10237000A0E6C4E7014647F23050C2E7140000204F
:102380009A9999999999B93F000000006F12833A80
:102390001FED030A92E710B52DED028BB0EE418AD6
:1023A000F0EE608AFE49D1ED1E0AF8EEE00AF4EE86
:1023B000400AF1EE10FA0BD14A6E824208D1D1EDFB
:1023C0001F0AF8EEE00AF4EE680AF1EE10FA4CD0BB
:1023D000FDEEC00AF24C8034C1ED1E0AD4ED050AB0
:1023E0000146F8EEE00A30EE600ABDEEC00A10EEDB
:1023F000102A1FED1B0A1046FFF760FF94ED050A37
:10240000F8EEC00A78EEE00AFDEEE00A10EE900A5F
:10241000002800DA4042B8EEC00A642818DDF4EE65
:10242000C08AF1EE10FA01DCB1EE488A18EE100A0B
:1024300004F006F904F017F9FDEEE80ABDEC028B92
:1024400000EE100ABDE81040002110EE900A58E797
:1024500038EEC00A10EE100A04F0F2F89FEDD11B1E
:1024600053EC112B03F0FAFFE4E7BDEC028B10BD37
:10247000CB4910B58031C868012829DDC84A4B69AD
:10248000D06FC01AFFF7C8FD052809DAC868421CDA
:10249000CA60B0F57A7F1BDDBDE810400020D4E6AD
:1024A0000520CB685066B3F5FA7F106602DD40F276
:1024B000F510C8604869D26F904202DDBFEE000A95
:1024C00001E0B7EE000A81ED010ABDE81040F1E538
:1024D00010BD70B5B249803191ED020AB5EEC00A67
:1024E000F1EE10FA72D1AE4A136E002B6ED0D06F9F
:1024F00047F23054A04269DA91ED010AB5EEC00A04
:10250000F1EE10FA7ED0556FA54260D1B5EEC00A4B
:102510001346F1EE10FADB6B03DD4D69C41AAC42D1
:1025200008DBB5EEC00AF1EE10FA17D24C6903448D
:10253000A34213DDCB68032B48DA4B69C01AFFF7BF
:102540006BFD0A28D06F0ADA0861002010661FEDC3
:10255000720A506681ED010A0220C86078E092EDAF
:10256000180AD1ED010A4B69B8EEC00A984260EE34
:10257000200A92ED0F0AB8EEC01A80EE810A0FDD34
:10258000FFF742FDD06F4969401AFFF745FD00EEA5
:10259000900AB8EEE01AD2ED090A40EE010A0EE008
:1025A000FFF732FDD06F4969401AFFF735FD00EEA5
:1025B000900AB8EEE01AD2ED090A50EE410A92ED07
:1025C000180AB8EEC01A80EE810A41E045E0744A6C
:1025D000B5EEC00AD2ED0E0AF1EE10FA18DD01EEEA
:1025E000100AF8EEC11A01EE103AB8EEC11A41EE27
:1025F000401AB8EEE01A71EEC11A91ED051AB8EE64
:10260000C11A00E027E0F4EEC11AF1EE10FA1BD374
:10261000B5EEC00AF1EE10FA1AD201EE100AF8EE89
:10262000E00AF8EEC11A01EE103AB8EEC11A41EE16
:10263000401A31EEA01AD1ED050AF8EEE00AB4EE28
:10264000E01AF1EE10FA03DD4969401AFFF7A5FC24
:10265000BDE870402EE50868F6E770BD5048504967
:102660008030C268022A0CDA1FEDB90A002280ED20
:10267000020A80ED010A47F23050CA654867C1E995
:102680001E020B6F46485B1C0B670A6DC06C9342C1
:1026900002DB0A67896C01B12FE40020FCE7404AA5
:1026A000136F5B1C1367834204DD106E08441066D1
:1026B00000201067704770B5FFF743FC384D803538
:1026C0006861FFF7D5FE364C4FF0FF31626E206E29
:1026D000002A0BDD90420ED006DAA16E88420ADA9B
:1026E000FFF79EFC012104E0E86902E0002831DDEB
:1026F000E06EFFF7D4FFD5E90501814203D0FFF773
:10270000E8FE6869A861A06D002826D094ED180A3B
:10271000D5ED0A0AB8EEC00A20EE200AFFF716FC33
:1027200094ED180AD5ED090A0246B8EEC00A20EE6B
:10273000200AFFF70BFC94ED180AD5ED080A0146B4
:10274000B8EEC00A20EE200AFFF700FCBDE870409A
:10275000FFF7A6BBBDE8704080E770BD13488088D6
:10276000FDF772BF70471249002008600C490861EC
:1027700070471049002008600949486170470C48BB
:1027800010B5243801F0CCFC0549096940EA014044
:10279000642190FBF1F0FDF757FF014980310BE018
:1027A000140000207B14AE47E17A743FC802002079
:1027B00024040040240C0040086310BD10B5FE48FE
:1027C00001F0AEFCFD49496940EA0140642190FBFB
:1027D000F1F0FDF739FFF9498031086510BDF8B512
:1027E000FFF7CDFFF54C8034A06C009004F1300071
:1027F000636C07C8FDF72CFF2064226BE16B881A1D
:1028000000D54042022601270025142801DA256759
:102810000BE0914208DA4FF48051E948266700F056
:1028200043FE0028F3D100E02767A16B206B8842AC
:1028300002DC616B884200DA2567E248226F3AB118
:10284000FA21012A06D0022A01D1C1768576F8BD87
:10285000C676F8BDC1768776F8BD2DE9F843FFF757
:10286000ADFFD64C80342065A16E0091D4E91512DD
:10287000636EFDF7EDFE2066226DE16D881A00D5CE
:102880004042022601270025142801DA656716E078
:10289000DFF82C8391420BDA4FF480614046666783
:1028A00000F002FE0028F1D1606F012801D006E09F
:1028B00067678021404600F0F7FD00B12567A16DF4
:1028C000206D884202DC616D884200DA6567BD4890
:1028D000626F42B1FA21012A07D0022A01D1C175E3
:1028E0008575BDE8F883C675FBE7C1758775F8E7A0
:1028F00018B5B24C8034E064D4E91112FDF7F6FE4D
:10290000E064A16B0091D4E91112636BFDF7A0FEA6
:10291000E06318BD18B5A94C8034E063D4E90D120A
:10292000FDF7E4FEE063A16C0091D4E90D12636C45
:10293000FDF78EFEE06418BD18B5A04C8034E0664B
:10294000D4E91912FDF7D2FEE066A16D0091D4E939
:102950001912636DFDF77CFEE06518BD18B5974C44
:102960008034E065D4E91512FDF7C0FEE065A16E84
:102970000091D4E91512636EFDF76AFEE06618BD9A
:102980008E488030006F70478C488030406F7047B1
:102990002DE9F041FA258B4C00264FF48057DFF8E3
:1029A000208204E0E576A676052003F020F939467A
:1029B000404600F079FD0028F4D10226E676FFF7C4
:1029C000D2FE052003F013F97C4F4FF00108803749
:1029D00005E0E57684F81A80052003F008F9FFF792
:1029E000CEFE796B8842F4DBE676BDE8F0812DE916
:1029F000F0474FF00009FA26724C4FF48067704D93
:102A000005E0E67584F81690052003F0F0F83946E5
:102A1000284600F049FD0028F3D14FF0020884F861
:102A20001780052003F0E3F84FF0010A05E0E67592
:102A300084F816A0052003F0DAF88021284600F07B
:102A400033FD0028F3D184F8178002E0E67584F89E
:102A50001690052003F0CBF83946284600F024FDF7
:102A60000028F3D184F81780052003F0C0F8BDE8F2
:102A7000F0477EE651488030816F4F48383021B1B1
:102A8000012901D12821016070470221FBE74B4851
:102A90004FF400418030C26F4B480AB1012A01D186
:102AA00000F01ABD70474549803188677047434937
:102AB0008031C867704741488030806F70473F4819
:102AC0008030C06F70474148C088FDF7BDBD78B504
:102AD0003E48C088FDF7B8FD3A4C343C2060A169FF
:102AE0000091D4E901126369FDF7B2FD2061E56848
:102AF00020682A1A00D552420123022600210A2A00
:102B000001DA216204E0854201DD236200E02662F1
:102B1000A268904202DC6268904200DA2162246A74
:102B200028483CB12822012C06D0022C01D1C274C5
:102B3000817478BDC67478BDC274837478BD18B5CD
:102B4000204C343CE060D4E90112FDF7CFFDE06099
:102B5000A1690091D4E901126369FDF779FDE06193
:102B600018BD18B5BDEEC00A164C10EE100A343C64
:102B7000E061D4E90512FDF7B9FDE061A1680091BB
:102B8000D4E905126368FDF763FDE06018BD0D48E8
:102B90003438006A70472DE9F14F96B00020149048
:102BA00006498DF800008DF82800074A4FF40045CB
:102BB000074C80310EE00000000C004014000020A3
:102BC000001002404801002000040240C80200201A
:102BD00000080240DDF858C001F18000FF4B1715D6
:102BE000DFF8FC936E10A0F5807A4FF0640BBCF117
:102BF000110F7ED2DFE80CF009282C3034383E4427
:102C00004B5763676B707480FE000221104600F022
:102C10004BFC60B100222946204600F05DFC2946AD
:102C2000204600F04BFC01460022EEA05FE00122AE
:102C30002946204600F050FC2946204600F03EFC84
:102C400001460022EFA052E001224969F5A04EE0C2
:102C5000416A0222F5A04AE0816A0322F7A046E019
:102C6000C16A0422F8A042E0FDF79BFF014605225D
:102C7000F8A03CE0FDF7A3FF01460622F8A036E0ED
:102C8000FDF7ACFF01460722F8A0FDF7CCFDFA489E
:102C900001F046FADAF81010082240EA014191FBEF
:102CA000FBF1F6A023E0F84801F03AFADAF8141044
:102CB000092240EA014191FBFBF1F4A017E0D98819
:102CC0000A22F5A013E099880B22F7A00FE0C16853
:102CD0000C22F8A00BE00CE00D22C96AF9A006E076
:102CE0003946484600F0E0FB01460E22F9A0FDF708
:102CF0009AFD17B0BDE8F08F0121484600F0D4FBE3
:102D00000246F7A1684603F00FFE69460AA803F0E1
:102D1000DFFA0221484600F0C7FB0246F0A16846F0
:102D200003F002FE69460AA803F0D2FA314648468B
:102D300000F0BAFB0246EAA1684603F0F5FD6946D9
:102D40000AA803F0C5FA2946484600F0ADFB024642
:102D5000E3A1684603F0E8FD69460AA803F0B8FA63
:102D60000821484600F0A0FB0246DDA1684603F0BA
:102D7000DBFD69460AA803F0ABFA4FF480714846C0
:102D800000F092FB0246D6A1684603F0CDFD6946ED
:102D90000AA803F09DFA0421484600F085FB02468C
:102DA000CFA1684603F0C0FD69460AA803F090FA77
:102DB0008021484600F078FB0246C9A1684603F02E
:102DC000B3FD69460AA803F083FA4021484600F0A3
:102DD0006BFB0246C2A1684603F0A6FD69460AA83D
:102DE00003F076FA3946484600F05EFB0246BCA185
:102DF000684600E05AE003F097FD69460AA803F030
:102E000067FA4FF48051484600F04EFB0246B4A1E9
:102E1000684603F089FD69460AA803F059FA4FF4A1
:102E200000552946484600F03FFB0246ACA16846E3
:102E300003F07AFD69460AA803F04AFA20214846C1
:102E400000F032FB0246A6A1684603F06DFD69461C
:102E50000AA803F03DFA1021484600F025FB02467F
:102E60009FA1684603F060FD69460AA803F030FAA6
:102E70002946204600F018FB024699A1684603F057
:102E800053FD69460AA803F023FA3146204600F0B4
:102E90000BFB024692A1684603F046FD69460AA86C
:102EA00003F016FA10220AA96CA067E13946904691
:102EB000104600F003FB024689A1684603F034FD8A
:102EC00069460AA803F004FA8021204600F0F6FAC9
:102ED000024683A1684603F027FD69460AA803F06D
:102EE000F7F94FF40071204600F0E8FA02467CA1A1
:102EF000684603F019FD69460AA803F0E9F9DFF80E
:102F0000E4913946484600F0D9FA024674A1684671
:102F100003F00AFD69460AA803F0DAF94FF4006AE3
:102F20005146404600F0CAFA02466DA1684603F0D9
:102F3000FBFC69460AA803F0CBF94FF48054214604
:102F4000404600F0BBFA024665A1684603F0ECFC7F
:102F500069460AA803F0BCF96100404600F0AEFAE9
:102F600002465FA1684603F0DFFC69460AA803F049
:102F7000AFF93146404600F0A1FA024658A1684632
:102F800003F0D2FC69460AA803F0A2F9294640469C
:102F900000F094FA024652A1684603F0C5FC694667
:102FA0000AA803F095F93946484600F087FA024628
:102FB0004BA1684603F0B8FC69460AA803F088F9FB
:102FC0003146484600F07AFA024645A1684603F0C9
:102FD000ABFC69460AA803F07BF985E0C802002033
:102FE00000100240524F424F5420322044414E477D
:102FF00020434841592053414E2058414E483A20E1
:1030000020200000524F424F5420322044414E476E
:1030100020434841592053414E20444F3A2020201C
:1030200000000000494D553A000000004C415A454F
:1030300052205452554F433A000000004C415A452B
:103040005220545241493A004C415A45522050486E
:1030500041493A00454E204220545241493A00002D
:10306000454E204220504841493A0000454E2054E8
:103070004F4E473A0000000000040040454E2043F8
:103080005420583A00000000000C0040454E2043F8
:103090005420593A000000004254204D414D205820
:1030A0004F41593A0000000042542042414E205402
:1030B00041593A0054204254204D414D20584F412F
:1030C000593A0000542042542042414E2054415964
:1030D0003A00000043425420592044756F693A0079
:1030E00025640000000C02405146484600F0E6F915
:1030F0000246AFF21401684603F016FC69460AA8BE
:1031000003F0E6F84E4D2111284600F0D7F90246AB
:10311000AFF23401684603F007FC69460AA803F0E1
:10312000D7F85146284600F0C9F90246AFF25001DF
:10313000684603F0F9FB69460AA803F0C9F821467E
:10314000284600F0BBF90246AFF26C01684603F076
:10315000EBFB69460AA803F0BBF84021404600F0AB
:10316000ADF90246AFF28801684603F0DDFB69461F
:103170000AA803F0ADF811220AA932A0FDF7B2FBAC
:10318000B7E511B43148016B009A914201DD00218D
:1031900001E0016B491C0163006B18BCFBE41020CB
:1031A000FFF7EFFF0F2002F022FDF8E710B5FDF763
:1031B00023FDFDF755FDFDF79AFFFEF753F8FEF7E7
:1031C000C1F9FDF7B2FD4FF4E1342046FEF76BFA8A
:1031D0002046FEF7FFFA2046FEF782FB2046FEF768
:1031E00006FCE000FEF788FCFEF73BF9BDE8104066
:1031F000052002F0FCBCFFF7D9FFFFF7F8FB052024
:1032000002F0F5FCFBE77FB500244FF480750094D5
:103210000194029423462A460DA11048039402F01B
:103220000FFB00940194029400232A460CA10E483F
:10323000039402F005FB02F029FE04B0002070BDEB
:10324000000002404F55543A0000000014010020D5
:103250007461736B4D61696E00000000F731000806
:103260007461736B4C4344009F3100082849084344
:1032700028490860704730B50F22C47801780123CF
:10328000FCB1244C246801F1E02104F4E064C4F5AD
:10329000E064C4F30724C4F10405E2404478AC4080
:1032A0008578154025432A0181F80024007800F034
:1032B0001F018B404009800000F1E020C0F8003180
:1032C00030BD01F01F0083404809800000F1E0207C
:1032D000C0F8803130BD104A114001430D48001F35
:1032E000016070470B4A121D0029116801D001438B
:1032F00000E08143116070474FF0E0210428086925
:1033000003D020F004000861704740F00400FAE7A1
:103310000000FA050CED00E080FFFF1F7C4910B5AE
:10332000884206D10121084600F058FA0021012008
:103330004FE07849884206D10121022000F04EFA80
:103340000021022045E07449884206D10121042071
:1033500000F044FA002104203BE07049884206D185
:103360000121082000F03AFA0021082031E06C49E0
:10337000884206D10121102000F030FA00211020EF
:1033800027E06849884206D10121202000F026FA72
:10339000002120201DE06449884206D101214020FF
:1033A00000F01CFA0021402013E06049884206D159
:1033B0000121802000F012FA0021802009E05C4900
:1033C00088420AD184150121204600F007FA002125
:1033D0002046BDE8104000F001BA10BDF0B5002352
:1033E000012403270D6804FA03F21540954242D1E7
:1033F000D0F800C05E0007FA06F52CEA050CC0F80C
:1034000000C091F804C0D0F800E00CFA06FC4CEAC9
:103410000E0CC0F800C091F804C0BCF1010F02D03E
:10342000BCF1020F1FD1D0F808C02CEA050CC0F87F
:1034300008C091F805C0D0F808E00CFA06FC4CEA88
:103440000E0CC0F808C0D0F804C02CEA020CC0F87A
:1034500004C0426891F806C00CFA03FC1FFA8CFC09
:1034600042EA0C024260C268AA43C260CA79C568D7
:10347000B2402A43C2605B1C102BB3D3F0BD4FF6A1
:10348000FF7101600021017141718171C17170474B
:1034900008B541F480320092C261C1610099C161F6
:1034A000C169C069009008BD0246002012690A4245
:1034B00000D001207047006980B2704702460020AA
:1034C00052690A4200D001207047406980B27047BB
:1034D00001837047418370470AB10183704741837C
:1034E00070474161704742694A40426170474B07EB
:1034F000DB0E9A40C90810B500EB8100016A0F2469
:103500009C40A1430162016A1143016210BD0000A9
:10351000000002400004024000080240000C02408B
:10352000001002400014024000180240001C02403B
:1035300000200240EA48016841F001010160E84AC8
:103540000021083211600268E64B1A400260031D38
:10355000E54A1A60026822F480220260E0480C30DA
:1035600001607047DE490022891C0A7008707047AC
:1035700002460020510901290CD002290CD0D8495B
:103580007431096802F01F02012393400B4200D0FE
:1035900001207047D249F4E7D1497031F1E718B5FD
:1035A00000204FF4A06400903120FFF7E1FF009964
:1035B000491C0091A14201D00028F5D03120FFF72D
:1035C000D7FF002800D0012018BDC5490A6822F0A5
:1035D000F80242EAC00008607047C44908607047BA
:1035E000BF49002270310A700A70012802D00428F5
:1035F00001D1052008707047BD490860704741EA55
:1036000082115A0810B5BB4B029C03EB02421143D6
:10361000014341EA0460B249091D086010BDB34985
:1036200008667047800140EA0170AD498431086046
:103630007047AE4988667047AC49C8647047A84A6D
:1036400008321368084323F0EC6318431060704796
:10365000A34A08321368084323F0784318431060E4
:1036600070479F4A0832116821F00301014311603D
:1036700070479B480830006800F00C007047984A7B
:103680000832116821F0F001014311607047944A3B
:103690000832116821F4E0510143116070479049EC
:1036A00008310A6822F4604242EAC00008607047AC
:1036B00070B58B4A083211688F4C11F00C0104D0A0
:1036C0006610042903D0082903D004601BE00660BB
:1036D00019E08349091D0B68C3F380550B6803F09B
:1036E0003F0315B1B6FBF3F301E0B4FBF3F30C6851
:1036F0000968C4F388146343C1F30141491C4900BC
:10370000B3FBF1F1016011680F2303EA11117B4B48
:103710005C5C0168E14041601468072505EA942477
:103720001C5D21FA04F48460126805EA52329A5C46
:10373000D140C16070BDC0F30121032908D1684A9E
:103740000832116821F4F8136D49014019431160E2
:10375000634970310A68C0F30B0002430A60704786
:1037600063494439086070476149403908607047CF
:103770005E49C1F85C017047594A3032002911682E
:1037800001D0014300E0814311607047544A343254
:103790000029116801D0014300E0814311607047A6
:1037A0004F4A38320029116801D0014300E08143BB
:1037B000116070474A4A40320029116801D0014324
:1037C00000E0814311607047454A44320029116886
:1037D00001D0014300E0814311607047404A10323C
:1037E0000029116801D0014300E081431160704756
:1037F0003B4A14320029116801D0014300E08143A3
:1038000011607047364A18320029116801D001430F
:1038100000E0814311607047314A2032002911686D
:1038200001D0014300E08143116070472C4A2432EB
:103830000029116801D0014300E081431160704705
:10384000274A50320029116801D0014300E081432A
:1038500011607047224A54320029116801D0014397
:1038600000E08143116070471D4A583200291168F9
:1038700001D0014300E0814311607047184A603273
:103880000029116801D0014300E0814311607047B5
:10389000134A64320029116801D0014300E08143DA
:1038A000116070470E4A0D320029117801D0014392
:1038B00000E081431170704709487430016841F09D
:1038C0008071016070470146054A00200C32126881
:1038D0000A4200D00120704701490E31087070473C
:1038E00000380240FFFFF6FE10300024000047427F
:1038F000800E47420000FFFF0024F40098010020E2
:10390000FFFCFF0F10B501210C022046FFF78EFFD0
:103910002046BDE810400021FFF788BF30B542685F
:10392000C84B0C791A400B6842EA042213434360E7
:103930008268C54B4D791A40D1E9034323438C6813
:1039400044EA4504234313438360C26A097D22F499
:103950007002491EC9B242EA0151C16230BD002164
:103960000160017141718160C160016101210175D6
:103970007047B64B10B5D3F80423B5490A40D0E9D7
:1039800000142143D0E90240044321431143C3F80A
:10399000041310BD0021016041608160C160704767
:1039A0000029816802D041F0010101E021F001010C
:1039B000816070474268A74B1A400A4342607047D3
:1039C000416282627047426822F01F020A434260ED
:1039D00070479E490028D1F8040302D040F400004B
:1039E00001E020F40000C1F8040370479749002863
:1039F000D1F8040302D040F4800001E020F48000FC
:103A0000C1F80403704770B5072409290AD9C568AD
:103A1000A1F10A0606EB4606B440A543B3401D4398
:103A2000C56007E0056901EB4106B440A543B3401A
:103A30001D4305611F23072A09D2446B521E02EB66
:103A4000820293409C4391400C43446370BD0D2A15
:103A500009D2046BD21F02EB820293409C43914037
:103A60000C43046370BDC46A0D3A02EB82029340BA
:103A70009C4391400C43C46270BD816841F0804119
:103A800081607047014600208968490200D5012005
:103A900070470029816802D041F4806101E021F47F
:103AA0008061816070470029816802D041F0020185
:103AB00001E021F00201816070474268491E22F452
:103AC000604242EA4131416070470029416802D0BA
:103AD00041F4006101E021F4006141607047C06C75
:103AE00080B270475948D0F80803704700298168B0
:103AF00002D041F4807101E021F48071816070474F
:103B00000029816802D041F4007101E021F40071C4
:103B1000816070474D490028D1F8040302D040F479
:103B2000005001E020F40050C1F80403704770B564
:103B3000072409290AD9C568A1F10A0606EB460639
:103B4000B440A543B3401D43C56007E0056901EBE0
:103B50004106B440A543B3401D430561836BC3F3E5
:103B60000154121B921C02EB82041F22A2409343B9
:103B7000A1400B43836370BD826B491E22F4401247
:103B800042EA01518163704708B508440090026021
:103B900008BD826822F470220A43826070478268FE
:103BA00022F440120A4382607047816841F4800128
:103BB00081607047014600208968490200D50120D4
:103BC00070470029416802D041F4806101E021F48E
:103BD0008061416070470029416802D041F4805102
:103BE00001E021F480514160704708B50844283055
:103BF0000090006880B208BD01238B4041680AB183
:103C0000194300E099434160704702460020126862
:103C10000A4200D001207047C9430160704730B5A7
:103C20000246002053680C0A01258D4011682B4084
:103C3000214202D0002B00D0012030BD6FEA1121BB
:103C400001607047FFFEFFFCFDF7FFC00020014050
:103C5000E030FCFFFFFD3FFF2DE9F043016821F05C
:103C6000010101600021016041608160C16001616A
:103C700021214161B849B84A3D251039904202D10D
:103C80008D60BDE8F083B44A4FF4746618329042F8
:103C900001D18E60F5E7B04A4FF47417303290428C
:103CA00001D18F60EDE7AC4A4FF0746C483290421E
:103CB00002D1C1F808C0E4E7A74BA84A6033984294
:103CC00001D1CA60DDE7A44CA54B7834A04201D1F4
:103CD000CB60D6E7DFF88082A24C08F1900840451F
:103CE00001D1CC60CDE7DFF870824FF03D5908F18B
:103CF000A808404502D1C1F80C90C2E79A49DFF804
:103D000068820839404501D10D60BAE7964D1835F3
:103D1000A84201D10E60B4E7934D3035A84201D1DD
:103D20000F60AEE7904D4835A84202D1C1F800C0FF
:103D3000A7E78D4D8C496035091FA84201D10A6063
:103D40009FE7894A7832904201D10B6099E7864A11
:103D50009032904201D10C6093E7834AA83290429E
:103D60008FD1C1F800908CE730B503687F4ACC68EA
:103D700013400A682243D1E905452C432243CC690C
:103D800022430C6A22434C6A22438C6A22434C6BC6
:103D900022438C6B22431A430260426922F00703DC
:103DA000D1E90B2422431A4342610A6942604A68FE
:103DB00082608968C16030BD00210160416081601E
:103DC000C160016141618161C161016241628162E1
:103DD000C16201634163816370470029016802D0B9
:103DE00041F0010101E021F001010160704700296B
:103DF000016802D041F4004101E021F4004101607A
:103E000070470029016802D041F0200101E021F053
:103E100020010160704741607047406880B2704780
:103E2000002A026802D042F4002201E022F40022BB
:103E30000260016170470029016802D041F48021CD
:103E400001E021F48021016070470AB101617047EF
:103E5000C1607047014600200968090300D50120B0
:103E60007047014600200968C90700D0012070474B
:103E7000406900F03800704702463B4B00209A42F0
:103E800002D2354A103A01E0374A103A8B0001D588
:103E9000526800E01268364B1A400A4200D00120F6
:103EA0007047314A904202D22B48103801E02E4828
:103EB00010382F4A8B0001EA020101D5C16070471A
:103EC000816070470B0607D5436912B143F0800348
:103ED00001E023F080034361802908D0002A0268B2
:103EE00001F01E0101D00A4300E08A4302607047DE
:103EF00030B51D4A0024904202D2174B103B01E01E
:103F0000194B103B1B4A114205D01E2202EAD12553
:103F100002682A4002E0406900F08002880001D572
:103F2000586800E01868124B1840084201D002B1EE
:103F30000124204630BD0C4A904202D20648103877
:103F400001E0094810380A4A8B0001EA020101D554
:103F5000C160704781607047106002403D000020E2
:103F6000400F002000003D20106402403F801CF004
:103F70007D0F7D0F3C0F3C0FFE4910B5884206D1E6
:103F800001210846FFF752FC002101205BE0B0F15F
:103F9000804F09D0F84988420DD101210220FFF756
:103FA0003BFC0021022070E001210846FFF734FCB1
:103FB0000021012069E0F149884206D10121042055
:103FC000FFF72AFC002104205FE0ED49884206D17A
:103FD00001210820FFF720FC0021082055E0E949D5
:103FE000884206D101211020FFF716FC0021102085
:103FF0004BE0E549884206D101212020FFF70CFC67
:104000000021202041E0E149884206D1012102201F
:10401000FFF70CFC0021022015E0DD49884202D1A7
:1040200001210C040AE0DB49884202D101214C0441
:1040300004E0D94988420AD101218C042046FFF7C7
:10404000F5FB00212046BDE81040FFF7EFBBD34948
:10405000884206D101214020FFF7DEFB00214020ED
:1040600013E0CF49884206D101218020FFF7D4FB1D
:104070000021802009E0CB4988420AD18415012122
:104080002046FFF7C9FB00212046BDE81040FFF79E
:10409000C3BB10BD30B50288B64BBC4C98420DD0A6
:1040A000A0420BD0B0F1804F08D0B34DA84205D04C
:1040B000B24DA84202D0B24DA84203D122F0700501
:1040C0004A882A43AF4DA84206D0AF4DA84203D03C
:1040D00022F440750A892A4302804A68C2620A882B
:1040E0000285984201D0A04201D1897A018601213E
:1040F000818230BD4FF0FF3141600021018001819C
:10410000418081727047018582827047028822F067
:1041100070020A430280704741627047C162704773
:10412000406A7047008D70470029018802D041F035
:10413000020101E021F0020101807047002901889D
:1041400002D041F0040101E021F004010180704738
:104150000029018802D041F0800101E021F08001B6
:1041600001807047028822F00802028002880A4318
:1041700002807047028822F44072028002880A435B
:10418000028070470029018802D041F0010101E05E
:1041900021F001010180704730B5028C22F001024C
:1041A0000284028C8388048B22F0020224F07305BF
:1041B0000C882C438D8915434A882A436D4DA842AB
:1041C00002D0724DA8420DD122F00805CA8923F40D
:1041D00040732A4322F004058A882A430D8A1D432E
:1041E0004B8A2B438380048389684163028430BDFA
:1041F00070B5028C22F010020284028C8488038B3A
:104200000D8823F4E6464FF6FF7303EA0525354390
:104210008E8922F0200203EA061616434A8803EA32
:1042200002123243534EB04202D0584EB04215D122
:1042300022F08006CA8924F4406403EA0212324361
:1042400022F040068A8803EA021232430E8A03EA09
:10425000860626434C8A03EA84043443848005831B
:1042600089688163028470BD70B5028C22F480720B
:104270000284028C8488838B0D8823F073031D4392
:1042800022F400738E894FF6FF7202EA06261E435F
:104290004B8802EA03233343364EB04202D03B4EF2
:1042A000B04215D123F40066CB8924F4405402EACD
:1042B0000323334323F480668B8802EA03233343CA
:1042C0000E8A02EA061626434C8A02EA0414344394
:1042D000848085838968C163038470BD70B5028C56
:1042E00022F480520284048C8288838B0D8823F40C
:1042F000E6464FF6FF7303EA0525354324F40056DE
:104300008C8903EA043434434E8803EA0636264394
:10431000184CA04202D01D4CA04205D122F480448A
:104320000A8A03EA821222438280858389680164B3
:10433000068470BD0021018041808180816081817F
:10434000C18101824182704730B50124058C00F1A2
:1043500018038C40A543058431B308292CD0091FCC
:10436000C1F34E001844016848F6FF73194001601C
:1043700001681AE00000014000040040000800400D
:10438000000C0040001000400014004000040140F8
:104390000040014000440140004801400018004036
:1043A000001C00400020004006E04FF6FF7303EAC7
:1043B00002221143016030BD03EB510001684FF64A
:1043C0008F73194001600168F3E7416370478163AF
:1043D0007047C163704701647047028B22F070021E
:1043E0000A4302837047028B4FF6FF7322F4E042C8
:1043F00003EA0121114301837047828B22F070028E
:104400000A4382837047828B4FF6FF7322F4E042A7
:1044100003EA0121114381837047028B22F00802D5
:104420000A4302837047028B4FF6FF7322F4006247
:1044300003EA0121114301837047828B22F00802B5
:104440000A4382837047828B4FF6FF7322F4006227
:1044500003EA0121114381837047028B22F0040299
:104460000A4302837047028B4FF6FF7322F4806287
:1044700003EA0121114301837047828B22F0040279
:104480000A4382837047828B4FF6FF7322F4806267
:1044900003EA0121114381837047028B22F08002DD
:1044A0000A4302837047028B4FF6FF73C2F30E027A
:1044B00003EA0121114301837047828B22F08002BD
:1044C0000A4382837047828B4FF6FF73C2F30E025A
:1044D00003EA0121114381837047028C22F002021A
:1044E0000A4302847047028C22F008020A430284C5
:1044F0007047028C4FF6FF7322F0200203EA01118D
:10450000114301847047028C4FF6FF7322F0800242
:1045100003EA0111114301847047028C4FF6FF73C7
:1045200022F4007203EA0121114301847047028CD6
:104530004FF6FF7322F4006203EA01211143018464
:104540007047028C4FF6FF7322F4005203EA0131E8
:1045500011430184704710B50123048C8B409C43A8
:104560000484038C8A401343038410BD10B50423D4
:10457000048C8B409C430484038C8A401343038443
:1045800010BD828B22F440628283828B4FF6FF73D0
:1045900003EA01210A4382837047828B22F00C02D6
:1045A0008283828B0A4382837047028B22F44062AB
:1045B0000283028B4FF6FF7303EA01210A43028351
:1045C0007047F0B5048C24F010040484078B068C2B
:1045D0004FF6FF7404EA011527F4734704EA033128
:1045E000394304EA02220A4326F0A001294341F09C
:1045F000100102830184F0BD028B22F00C020283C1
:10460000028B0A43028370472DE9F0410D460E8864
:104610004988AA882B8904460EB3042E26D0082E7A
:10462000268C4FF6FF7028D026F480562684A78B60
:10463000268C00EA022200EA013127F473473A434C
:1046400000EA0330104326F420420A4342F480512A
:10465000A0832184E9882046BDE8F04191E700F07D
:1046600062F9E9882046BDE8F041C5E7FFF7A9FFF8
:10467000E9882046BDE8F04197E726F48076268455
:10468000A78B268C00EA012100EA0310104327F0D3
:10469000F307384326F420620A4342F48071A08372
:1046A0002184E9882046BDE8F04176E700210180B9
:1046B000418001228280C180018170472DE9F04153
:1046C0000C46002649880746012501B90226A28822
:1046D000012A00D10225208823890028384610D0DD
:1046E000FFF76FFFE1883846FFF75FFF23892A460F
:1046F0003146384600F017F9E1883846BDE8F04108
:104700007AE700F010F9E1883846FFF775FF238952
:104710002A4631463846FFF754FFE1883846BDE85F
:10472000F04142E7406B7047806B7047C06B704749
:10473000006C704710B50A884B88CC881A438B8868
:1047400023431A430B891A434B8989891A430A4325
:10475000A0F8442010BD0021018041808180C180EB
:104760000181418181817047002930F8441F02D0C6
:1047700041F4004101E0C1F30E01018070470029BE
:10478000818802D041F0040101E021F00401818020
:1047900070470029818802D041F0010101E021F039
:1047A000010181807047002A828901D00A4300E01C
:1047B0008A43828170478182704702460020128AB4
:1047C0000A4200D001207047C94301827047024667
:1047D0000020138A92890B4202EA010202D0002AC9
:1047E00000D001207047C943018270471143A0F8EF
:1047F00048107047002A828901D00A4300E08A43AA
:10480000828170470029818802D041F0080101E0CF
:1048100021F0080181807047018921F007010181A1
:104820007047028922F070020A430281704700B586
:104830000346FFF7F6FF188940F00700188100BD16
:1048400070B516460D46602904464FF00102314608
:104850000AD000F068F829462046FFF7E2FF2089D9
:1048600040F00700208170BDFFF7ABFEF3E730B5E5
:1048700004894FF6FF7505EA03231343E4B20B43A3
:104880002343038130BD10B50446FFF7F0FF2089B4
:1048900040F07700208110BD10B50446FFF7E7FF18
:1048A000208940F48040208110BD828822F070026F
:1048B000828082880A4382807047028922F0070240
:1048C000028102890A4302817047028922F0800234
:1048D000028102890A430281704770B50589048B01
:1048E000068C25F007050D434FF6FC410C4040F2C5
:1048F00001110C434FF6FF7101EA031126F0220665
:104900001143314305810483018470BD00298188EE
:1049100002D041F0800101E021F0800181807047E8
:10492000A0F85010704770B5048C24F00104048482
:10493000058B048C4FF6FF7606EA0313134325F02C
:10494000F3052B4324F00A020A4342F001010383DA
:10495000018470BDC74910B5884206D101211020DD
:10496000FEF764FF0021102028E0C349884202D1ED
:1049700001214C0410E0C149884202D101218C047C
:104980000AE0BF49884202D10121CC0404E0BD49BC
:1049900088420AD101210C052046FEF73DFF204642
:1049A000BDE810400021FEF737BFB749884209D162
:1049B00001212020FEF73AFF00212020BDE8104011
:1049C000FEF734BF10BD7FB50446008A0D4620F4C3
:1049D0004051E88808432082A08941F20C61884355
:1049E000A9882A8911436A8902431143A181A08AB7
:1049F00020F44071A8890843A0826846FEF758FE5B
:104A00009C48844202D0A048844201D1039800E02F
:104A10000298A189090400EBC00101EB001029688C
:104A200001D5490000E08900B0FBF1F26420B2FB3F
:104A3000F0F109010B096FF018056B4302EB8302DB
:104A4000A3891D044FF0320306D503EBC202B2FB6B
:104A5000F0F000F0070005E003EB0212B2FBF0F00B
:104A600000F00F00084320817FBD4FF41651016014
:104A700000218180C18001810C22428181817047A7
:104A800010B5028A4C8822F470630A8822438C880D
:104A9000C9880C4322431A43028210BD00210180C1
:104AA00041808180C18070470029818902D041F412
:104AB000005101E021F4005181817047028B02F422
:104AC0007F420283028B0A43028370470029818957
:104AD00002D041F4004101E0C1F30E018181704731
:104AE0000029818A02D041F4006101E021F40061D3
:104AF00081827047C1F30801818070478088C0F3CC
:104B000008007047028A22F00F020282028A0A43DA
:104B1000028270470029818902D041F0020101E040
:104B200021F0020181817047828922F40062828132
:104B300082890A4382817047028A22F0200202821F
:104B4000028A0A43028270470029018A02D041F496
:104B5000804101E021F4804101827047818941F068
:104B60000101818170470029818A02D041F008014A
:104B700001E021F0080181827047028BD2B20283EA
:104B8000028B42EA0121018370470029818A02D009
:104B900041F0200101E021F02001818270470029CD
:104BA000818A02D041F0100101E021F010018182E0
:104BB0007047828A22F004028282828A0A438282B9
:104BC00070470029818A02D041F0020101E021F002
:104BD000020181827047002A828A01D00A4300E0E4
:104BE0008A438282704710B5C1F3421301F01F045B
:104BF0000121A140012B07D0022B07D01430002A3D
:104C0000026805D00A4304E00C30F8E71030F6E7FC
:104C10008A43026010BD0246002012880A4200D07A
:104C200001207047C9430180704730B501F01F0271
:104C300001240025C1F3421304FA02F2012B0FD024
:104C4000022B0FD0838A4FEA11210088134204FA05
:104C500001F400EA040001D000B10125284630BD6E
:104C60008389F0E7038AEEE70A0A01219140C943EC
:104C7000018070470010014000440040004800409F
:104C8000004C0040005000400014014000F10801B9
:104C90004FF0FF32C0E90112C160016100210160E3
:104CA0007047002101617047426853684B60436858
:104CB0008B60536899605160416008610168491CCC
:104CC0000160704710B50B685A1C02D000F1080251
:104CD00002E0026904E05268546824689C42FAD9F0
:104CE00053684B6099608A60516008610168491C93
:104CF000016010BDD0E901128A60D0E90112516053
:104D000001694A68824201D182684A6000220261D8
:104D10000868401E086008687047000070B50D46BE
:104D200004001FD000F0EBFCD4E90F21206802FB47
:104D3000010363600023A363521EA06002FB010015
:104D4000E060581E6064A06404F110006DB1FFF7CC
:104D50009DFF04F12400FFF799FF00BF00F0D7FC8E
:104D6000012070BDFBF764FAFEE721690029F5D048
:104D700001F07BF90128F1D100F0BBFCEEE72DE951
:104D8000F04117460E46050019D0502000F0DEFC19
:104D9000040014D005FB06F0401C00F0D7FC206096
:104DA00050B1C4E90F5601212046FFF7B7FF84F840
:104DB0004D702046BDE8F081204600F01CFDFBF759
:104DC00037FAFEE770B5044600F099FC04F12405BB
:104DD0000AE0606A58B1284601F047F908B101F0CD
:104DE000BFF9A06C401EA064A06C0028F1DC4FF05D
:104DF000FF36A66400F08BFC00F081FC04F1100586
:104E00000AE0206958B1284601F02FF908B101F0F5
:104E1000A7F9606C401E6064606C0028F1DC666479
:104E2000BDE8704000F073BC10B51346026C044638
:104E30008AB1CBB1E06801F027FAE168206C091A69
:104E4000E1602268914202D26168081AE060A06BBA
:104E5000401CA06310BD20680028F8D1606801F0F4
:104E6000C7F900206060F2E7A06801F00DFA216C3C
:104E7000A0680844A06061688842E8D32068A06008
:104E8000E5E72DE9FF4182B098460F4604004FF058
:104E9000000502D000261FB107E0FBF7C9F9FEE7C5
:104EA000206C10B1FBF7C4F9FEE700F028FCA16B01
:104EB000E06B814213D2424639462046FFF7B4FFE9
:104EC000606A38B104F1240001F0CFF8012801D163
:104ED00000F00FFC00F01BFC012006B06AE704980C
:104EE00008B11DB106E000F012FC1DE0684601F0BB
:104EF000E9F8012500F00BFC00F046FE00F0FFFB96
:104F0000606C401C00D16664A06C401C00D1A6649B
:104F100000F0FDFB04A9684601F0DFF830B120463F
:104F2000FFF750FF00F0C2FD0020D6E700F0E7FBDE
:104F3000A06BE16B884210D100F0E9FB04F1100096
:104F4000049901F061F82046FFF73CFF00F0AEFD48
:104F50000028AAD100F0CDFBA7E700F0D8FB20463F
:104F6000FFF730FF00F0A2FD9FE770B50546502027
:104F700000F0ECFB04001DD0002161602160A16005
:104F8000E160A1630120C4E90F01801E6064A06498
:104F900084F84D5004F11000FFF778FE04F124006E
:104FA000FFF774FE00231A4619462046FFF769FFF3
:104FB000204670BDFBF73CF9FEE710B5040009D0B0
:104FC00001F0DAF8616888420FD1E068401EE060C5
:104FD00003D008E0FBF72CF9FEE700231A46194638
:104FE0002046FFF74EFF012010BD002010BD30B459
:104FF00003680D46002B0CD0026CC1688C18C4608D
:1050000041688C4200D3C360C168284630BC01F0BF
:105010003BB930BC70472DE9FF4383B01F4688463B
:1050200004004FF0000506D0002604F12409B8F171
:10503000000F03D007E0FBF7FBF8FEE7206C10B190
:10504000FBF7F6F8FEE700F05AFBA06B30B34146E1
:105050002046E568FFF7CBFF77B1E560606A28B1CD
:10506000484601F002F808B100F043FB00F04FFBA6
:10507000012007B0BDE8F083A06B401EA06320684C
:1050800010B901F079F8606020690028EED004F1D1
:10509000100000F0EAFF0128E6D0E7E7059808B124
:1050A0001DB106E000F033FB1DE0684601F00AF890
:1050B000012500F02CFB00F067FD00F020FB606C88
:1050C000401C00D16664A06C401C00D1A66400F0B6
:1050D0001EFB05A9684601F000F830B12046FFF735
:1050E00071FE00F0E3FC0020C3E700F008FBA06BBA
:1050F00038B100F00CFB2046FFF764FE00F0D6FC50
:10510000A1E700F004FB206830B900F0F8FA60680D
:1051100001F040F800F0FBFA4846059900F074FFF2
:105120002046FFF74FFE00F0C1FC00288BD100F0B5
:10513000E0FA88E770B50D46040009D001F01CF8CC
:105140006168884207D1E068401CE060012070BDC2
:10515000FBF76EF8FEE700232A4619462046FFF7C4
:105160005AFF0128F3D1E168491CE16070BD10B518
:105170000C4602220021FFF702FE08B1846310BD35
:10518000FBF756F8FEE72DE9F041984615460F4625
:10519000040001D01FB107E0FBF74AF8FEE7206CDE
:1051A00010B1FBF745F8FEE7FBF742F80646A06BA7
:1051B000E16B88421AD2424639462046FFF734FE58
:1051C000A06C401C04D0A06C401CA06401240EE024
:1051D000606A0028FAD004F1240000F046FF00289D
:1051E000F4D0002DF2D001202860EFE700243046F3
:1051F000FBF725F82046DDE52DE9F04115460F4681
:10520000040001D01FB107E0FBF712F8FEE7206CA5
:1052100010B1FBF70DF8FEE7FBF70AF80646A06BA6
:10522000E0B139462046FFF7E2FEA06B401EA063C6
:10523000606C401C04D0606C401C606401240EE073
:1052400020690028FAD004F1100000F00EFF0028B9
:10525000F4D0002DF2D001202860EFE70024304682
:10526000FAF7EDFF2046A5E510B5040006D000F0E2
:1052700046FAA46B00F04BFA204610BDFAF7D8FFAF
:10528000FEE710B508B1806B10BDFAF7D1FFFEE75D
:1052900010B504000BD03348002100BF00EBC10261
:1052A0005368A34206D1002240F8312005E0FAF706
:1052B000BFFFFEE7491C0829F0D3206800F09BFAE5
:1052C0002046BDE8104000F096BA90F84C007047B8
:1052D00080F84C10704790F84D00704710B518B129
:1052E000806B20B1002010BDFAF7A2FFFEE701207D
:1052F00010BD10B528B1816BC06B814204D1012073
:1053000010BDFAF795FFFEE7002010BD10B5154B54
:10531000002200BF53F832401CB1521C082AF9D3B6
:1053200010BD43F8321003EBC201486010BD70B5E8
:105330000D46044600F0E3F9626C0020521C00D1D7
:105340006064A16C491C00D1A06400F0E0F9A06B7E
:1053500020B9294604F1240000F073FE2046BDE880
:1053600070402FE50003002070B500244160BF4D60
:105370000061914206D8D11A8269914206D2011D7C
:10538000E86807E09A4203D2994201D3012403E07E
:10539000011DA868FFF796FC204670BDFEB5B34C12
:1053A0001D46034627680020089E002F08D08DE880
:1053B0000E0035B100232A4669463846FFF7E3FE62
:1053C000FEBD00F0DCFE01284FF0000305D00022F6
:1053D00069462068FFF755FDFEBD3246F8E770B517
:1053E000054600F080FDA14E04467068844203D259
:1053F00000F078F8012000E000202860204674606A
:1054000070BD9A4CA068016839B1C068002100687D
:1054100000F0E7F800F095F8F4E701210020F7E745
:1054200010B500F06CF9914C206880B99048FFF7F6
:105430002DFC8F481430FFF729FC8D48A0601430F4
:10544000E06000220C210A20FFF799FC2060BDE8F3
:10545000104000F05CB91FB5FFF7E2FF8348006819
:1054600068B100200221CDE90010029003460A0233
:10547000039080A1814800F0E3F9002802D1FAF7F7
:10548000D7FEFEE704B010BD2DE9F0471E46DDF85B
:10549000209017460D00804612D0282000F056F9C3
:1054A00004000AD0FFF7BCFFC4F80080C4E9065727
:1054B000C4E90869201DFFF7F4FB2046BDE8F0872A
:1054C000FAF7B6FEFEE710B5044600F018F9606979
:1054D00008B1012400E0002400F019F9204610BDB5
:1054E000006A7047F8B5614D20E0C1680E68C06879
:1054F000C468201DFFF7FEFB616A20468847E0690B
:10550000012813D1A0693044B04206D924616060FB
:10551000211DA868FFF7D6FB08E0002003460146DE
:10552000009032462046FFF739FF38B1A86801687D
:105530000029DAD1E968C5E90210F8BDFAF778FE6A
:10554000FEE770B588B002A8FFF749FF0546474E51
:105550003DE0069C24B1606910B1201DFFF7CAFB35
:10556000049830B1012832D0022820D003282ED14F
:105570002AE00598A169034601442A462046FFF720
:10558000F3FE012823D1616A20468847E06901289B
:105590001DD1002000900598A169002342181946EA
:1055A0002046FFF7FBFE90B9FAF742FEFEE70598AA
:1055B000A06130B141192B461A462046FFF7D4FEB0
:1055C00005E0FAF735FEFEE7204600F014F9002367
:1055D0001A4604A93068FFF71EFD0028B9D108B0AB
:1055E00070BD2DE9FC410F46054600F0CDFA01A83B
:1055F000FFF7F5FE0446019818B100F057FABDE830
:10560000FC811A4E37BBA54224D800F04FFAB0688F
:105610002746C068C468201DFFF76CFBE0690128BD
:1056200011D1A0692B4641193A462046FFF79CFE4E
:10563000012808D100200346014600902A46204652
:10564000FFF7ACFE18B1616A20468847D7E7FAF742
:10565000EFFDFEE7291B3068FFF769FE00F026FA30
:105660000028CCD100F045F8C9E70000A8010020CF
:1056700040030020546D72205376630003540008E9
:1056800010B5031F4FF080741C601B1F1960191F99
:1056900000230B6014390A60091FDA1E44380A60BF
:1056A00010BD264842F210710068B0FBF1F14FF0D6
:1056B000E020491E4161072101617047204810B573
:1056C000016841F47C010160016841F07C410160A6
:1056D000FFF7E7FF1B4900200860FAF777FD1A483B
:1056E000016841F040410160FAF766FD002010BDFD
:1056F000704713494FF080501C390860704710B54F
:10570000FAF796FD0F480168491C016010BD0D496C
:105710000868401E086001D1FAF791BD704708493A
:1057200010B51C394FF080500860FAF781FD00F089
:105730006CF9BDE810400020FAF781BD00000020A0
:1057400020ED00E0B801002034EF00E02DE9F04149
:105750000446002500F018FA374A02F108015068A3
:1057600001F1080360B93548086000204FF4205665
:105770004860C3E900063148C0E9003601205060A6
:1057800042F2FF7094B31034660704D004F00706A9
:10579000C6F108063444661E864227D226480968A8
:1057A000083001E0084631464E68A64202D20E6833
:1057B000002EF7D1994219D005680B68036048683C
:1057C0001035001B20280DD90B1958601A484C6061
:1057D00008305E6800E0204604686768B742FAD384
:1057E0001C60036048681168081A106000F05EF9D8
:1057F0002846BDE8F08110B5002817D0A0F11004AC
:1058000000F0C2F90C486168083000E010460268F8
:1058100053688B42FAD322600460074861680268CB
:1058200011440160BDE8104000F040B910BD0248CD
:105830000068704770470000BC010020680300202A
:105840002DE9FF5FDDE90E68109F15468A465FEA85
:10585000000B04D0052E05D3FAF7EAFCFEE7FAF7B1
:10586000E7FCFEE74C20FFF771FF04001CD0A80006
:1058700081469FB13846206398B1A522494600F081
:1058800015FD6FF00301206B01EB8501084420F04A
:10589000070568070BD0FAF7CBFCFEE7FFF756FFCA
:1058A000E9E72046FFF7A7FF4FF0FF347BE05146C2
:1058B0000A2204F1340000F017FD002084F83D00B6
:1058C000E662201DA664FFF7ECF904F11800FFF76B
:1058D000E8F92461C6F105006462A06159462846D2
:1058E000039AFFF7CDFE2060B8F1000F01D0C8F891
:1058F0000040FFF704FFF94DA868401CA860286825
:10590000DFF8DC8310B1A86948B32DE02C60A868EB
:10591000012829D15FF0000707EB870108EB810020
:10592000FFF7B4F97F1C052FF6D3ED486430FFF77D
:10593000ADF9EB487830FFF7A9F9E9488C30FFF76B
:10594000A5F9E748A030FFF7A1F9E548B430FFF723
:105950009DF9E348643068631430A86304E0286864
:10596000C06AB04200D82C60E06A2969884200D938
:105970002861E96A2164491CE9626969884200D9A1
:10598000686100EB800108EB8100211DFFF78CF9B5
:105990000124FFF7BCFEA86928B12868C06AB0429C
:1059A00001D2FFF7A6FE04B02046BDE8F09F70B517
:1059B0000646FFF7A4FEC94C2068864201D10026A6
:1059C00020E0FEB13546281DFFF794F9A86A18B10A
:1059D00005F11800FFF78EF9C148291DA030FFF727
:1059E00063F96068401C6060E06A401CE062FFF799
:1059F0008EFEA069002807D0002E05D1BDE87040BA
:105A0000FFF777BE2568DEE770BD2DE9F041B34CA6
:105A1000E06920B1206A401C2062BDE8F081E068A6
:105A2000401CE060E0684FF0FF36A0B9606B006892
:105A300010B1FAF7FDFBFEE7606BA16B6163A06339
:105A4000A06A401CA062606B0068A8B1606BC0686F
:105A5000C06840682063E068216B8842DDD3A04FB6
:105A6000606B006850B1606BC068C568E1686868C9
:105A7000814205D22063D0E72663ECE72663CCE7BA
:105A8000281DFFF737F9A86A18B105F11800FFF7CC
:105A900031F9E86A6169884200D9606100EB8000F1
:105AA00007EB8000291DFFF7FFF8D9E72DE9F04744
:105AB0008A4C0026E06938B1FFF721FEE069401EFC
:105AC000E061E06918B142E0FAF7B2FBFEE7A068D6
:105AD00098B3DFF80C82002708F18C08DFF80092F9
